:020000040800F2
:10000000B0090020A9010008EB220008C51D000866
:10001000E922000863070008B92900080000000071
:10002000000000000000000000000000C5230008E0
:1000300065070008000000000D230008C723000822
:10004000C3010008C3010008C3010008C301000880
:10005000C3010008C301000869070008C3010008C4
:10006000C3010008C3010008C3010008C301000860
:10007000C3010008C3010008C3010008C301000850
:10008000C3010008C3010008C3010008000000000C
:10009000000000000000000000000000C301000894
:1000A000C3010008C3010008C3010008C301000820
:1000B000B1240008C3010008C3010008C3010008FF
:1000C000C3010008C3010008C3010008C301000800
:1000D000C3010008C3010008C301000800000000BC
:1000E000C3010008C3010008C301000800000000AC
:1000F000000000000000000000000000C301000834
:1001000000000000C3010008C3010008C30100088B
:1001100000000000000000000000000000000000DF
:10012000C3010008C3010008C3010008C30100089F
:10013000C3010008000000000000000000000000F3
:10014000000000000000000000000000C3010008E3
:10015000C3010008C3010008C3010008C30100086F
:10016000C3010008C30100080000000000000000F7
:10017000000000000000000000000000000000007F
:1001800000000000C30100080000000000000000A3
:10019000C3010008DFF80CD000F08CF800480047DD
:1001A0006D3B0008B009002006488047064800471C
:1001B000FEE7FEE7FEE7FEE7FEE7FEE7FEE7FEE717
:1001C000FEE7FEE75D240008950100082DE9F05FD9
:1001D0000546002092469B468846064681464024B6
:1001E0001BE0284641464746224600F053F8534656
:1001F0005A46C01A914110D311461846224600F0C3
:100200003AF82D1A67EB01084F46224601200021DB
:1002100000F031F817EB00094E41201EA4F1010453
:10022000DFDC484631462A464346BDE8F09F40EAB7
:1002300001039B0703D009E008C9121F08C0042A64
:10024000FAD203E011F8013B00F8013B521EF9D24B
:100250007047D2B201E000F8012B491EFBD2704773
:100260000022F6E710B513460A4604461946FFF782
:10027000F0FF204610BD202A04DB203A00FA02F1EC
:10028000002070479140C2F1200320FA03F3194384
:1002900090407047202A04DB203A21FA02F0002126
:1002A000704721FA02F3D040C2F120029140084386
:1002B00019467047064C074D06E0E06840F0010320
:1002C00094E8070098471034AC42F6D3FFF766FF76
:1002D000303E0008503E0008454910B54A6822F4F7
:1002E00040324A604A6843681A434A6001684A6873
:1002F00022F480724A6001684A68036942EA032274
:100300004A6001684A6822F040724A6001684A689F
:1003100083681A434A6001688A6822F400628A602E
:1003200001688A68C3681A438A60816A6FF07062E4
:10033000D14201688A6822F070628A6001688A6826
:100340000CD0836A1A438A6001688A6822F040529E
:100350008A6001688A68C36A1A4301E022F0405249
:100360008A6001688A6822F002028A6001688A68ED
:10037000836942EA43028A60016A002901684A6887
:100380000FD042F400624A6001684A6822F4604279
:100390004A6001684A68174C436A04EB43331A43C6
:1003A00001E022F400624A600168CA6A22F4700225
:1003B000CA620168CA6A838B0F4C04EB03531A4369
:1003C000CA6201688A6822F400728A6001688A68D9
:1003D000036B42EA43228A6001688A6822F48062E1
:1003E0008A6001688A68406942EA8020886010BD9E
:1003F0000023014000E0FFFF0000F0FFF0B520A166
:1004000093B00FC906AC84E80F0021A10AAC0FC954
:1004100084E80F0022A30EAC0FCB84E80F00244821
:1004200000900723012206A9022002F012FF20BB40
:100430001F480026801C0124102502960590CDE956
:100440000354CDE90056A0F1100714230AAA022193
:10045000F88902F0A6FE80B907F11200CDE9044048
:100460000C20CDE90006CDE9024514230EAA022195
:10047000F88902F096FE002800D0472013B0F0BDA6
:10048000669A0C200008969EE2119EB1E0F273D9A4
:10049000669A0C200008969EE2119EB1E1F273D993
:1004A000669A0C200008969EE2119EB1E2F273D982
:1004B00022000020094B30B45C8A641CA04203D1A6
:1004C00030BC104603F096BB198A891C884203D1C0
:1004D0001078012800D1587030BC704714000020FB
:1004E00010B5104986B001EB80140F480021026856
:1004F00042F400320260006800F4003005900C20E5
:1005000000900220CDE901010720CDE903106946E2
:10051000064800F091FB204601F030FD06B00020B7
:1005200010BD000090020020403802400000024050
:1005300000F054BC70B50446114886B0016841F023
:100540000101016000680F4E00F0010005900120DC
:1005500001900290022003900B4D36F81400009099
:1005600055F82400694600F067FB36F8141055F87A
:100570002400002200F02DFC06B0002070BD000019
:10058000303802400E3E000830000020054910B50A
:10059000054A31F8101052F82000002200F019FC32
:1005A000002010BD0E3E000830000020054910B5A7
:1005B000054A31F8101052F82000012200F009FC21
:1005C000002010BD0E3E000830000020054910B587
:1005D000054A31F8101052F8200000F0F6FB002018
:1005E00010BD00000E3E00083000002070470000E3
:1005F0000349044A31F8101052F8200000F0E0BB23
:10060000103E00083400002030B50446254887B06D
:10061000051F002245F824002348036843F0040323
:100620000360006800F004000590204830F81400D2
:1006300000900220CDE90220A5F1100011B101299E
:1006400007D02BE0019250F82400694600F0F4FA3C
:1006500024E01749019150F82400694600F0ECFAB3
:100660001248001D50F8241055F8240000F03CFA00
:100670000C4800210C3850F8242055F8240000F0D4
:100680004BFA0848094D08382D1F50F824102857F8
:10069000002200F039FC285700F02AFC07B00020A7
:1006A00030BD00004800002030380240103E0008F5
:1006B000000011102DE9F041194986B01748086073
:1006C0000024084600F0C8FE20BB1648A04601687A
:1006D00041F4805101600068022500F480500590CB
:1006E000C0208DE821010326052769460E48CDE983
:1006F000036700F0A1FA08208DE8210169460B4844
:10070000CDE9036700F098FA054801F0EBFB08B16A
:100710006FF0070406B02046BDE8F08100300140CC
:100720003802002044380240000002400004024029
:1007300038B515464FF47A7200920A4601466FF0BA
:1007400005042B46034800F0CBFE00B92C4620469A
:1007500038BD00003802002010B50020FFF746FF2A
:1007600010BDFEE770470000014800F0C3B900006B
:100770000800002070B505460A4801224261018147
:1007800009A002F07DF905240DA0295D02F078F999
:10079000641E002CF8DC2978BDE870400AA002F045
:1007A0006FB9000014000020436F6E6E65637465BE
:1007B0006420746F206465766963653A0000000008
:1007C000253032582D000000253032580A00000034
:1007D00070B5074C0025656106A002F051F90120B3
:1007E00020706570A570E5702571657170BD0000A1
:1007F00014000020446973636F6E6E6563746564F2
:100800000A000000044B5B895B1C984202D1104631
:1008100003F0F0B9704700001400002078B5002400
:10082000009490F83C20012A19D0012280F83C2045
:100830000A6807230568092A13D9EE680A3A02EB09
:10084000420293409E43EE600B788A680A3B03EBBA
:1008500043039A400368DD682A43DA6010E002200F
:1008600078BD2E6902EB420293409E432E610B78C5
:100870008A6803EB43039A4003681D692A431A619F
:100880004A681F23072A13D205686E6B521E02EBBB
:10089000820293409E436E630B790A885B1E92B27C
:1008A00003EB83039A4003685D6B2A435A6327E096
:1008B00005680D2A12D22E6BD21F02EB82029340E2
:1008C0009E432E630B790A88DB1F92B203EB8303EE
:1008D0009A4003681D6B2A431A6311E0EE6A0D3AD1
:1008E00002EB820293409E43EE620B790A880D3B35
:1008F00092B203EB83039A400368DD6A2A43DA620B
:10090000164B0568144A9D4206D10D68122D03D17D
:10091000556845F48005556005689D4218D10B68FF
:10092000102B01D0112B13D1536843F400035360F3
:10093000096810290CD10A490A4A0968B1FBF2F189
:1009400001EB8101490000E0491E00910029FBD123
:1009500080F83C40002078BD002301400020014089
:100960005C00002040420F000068C06C704770B50A
:1009700004004FF0000503D0206C002610B107E002
:10098000012070BD666484F83C60204600F01AF8CF
:10099000206CC00610D4206C20F4885040F0020077
:1009A00020642046FFF798FC6664206C20F002006B
:1009B00040F00100206400E0012584F83C602846F6
:1009C00070BD000000B500680C4987B0884212D1A4
:1009D0000B480021026842F480720260006800F453
:1009E00080700590102000900320CDE90101694638
:1009F000044800F021F907B000BD000000200140CC
:100A0000443802400000024018B50021009190F8DF
:100A10003C20012A07D0012280F83C20026893681C
:100A2000DB0702D011E0022018BD936843F00103F8
:100A30009360204A204B1268B2FBF3F202EB4202B1
:100A400000E0521E0092002AFBD102689368DB0787
:100A50002DD0036C40F20164A34343F4807303641C
:100A600053685B0505D5036C23F4005343F48053AE
:100A70000364036CDB0404D5436C23F00603436476
:100A800000E0416480F83C100C496FF022031360D1
:100A900049680068C90602D00949884207D18168BF
:100AA00011F0405F03D1816841F0804181600020F6
:100AB00018BD00005C00002040420F0000230140F0
:100AC0000020014070B5044600F088F90546601C1E
:100AD00002D004480078044400F080F9401BA04292
:100AE000FAD370BD5000002010B1016000207047A3
:100AF00001207047017801F01F0201219140054A51
:100B000013680B4204D011604068002800D00047F1
:100B100070470000143C01400346002009B1012049
:100B200070475A60704700002DE9F04FDFF8ECB0D5
:100B300000224FF001094FF00F0A00BF09FA02F43A
:100B400001EA0403A34264D1066857000325BD40AF
:100B5000AE430660D60800EB8607D7F820C05607DC
:100B60004FEAD6680AFA08F62CEA060CC7F820C045
:100B70008668AE4386604668A6434660C468AC4358
:100B8000C46022F003055D44D5F808689407270F78
:100B90000AFA07F4DFF888C02640604502D14FF01A
:100BA000000C1DE0DFF87CC0604502D14FF0010C65
:100BB00016E0DFF874C0604502D14FF0020C0FE080
:100BC000DFF868C0604502D14FF0030C08E0DFF8A1
:100BD00060C0604502D14FF0040C01E04FF0070CFB
:100BE0000CFA07FCB44514D1D5F80868A643C5F83B
:100BF0000868104C25689D432560241D25689D4389
:100C00002560241D25689D432560241D25689D437E
:100C10002560521C102A91D3BDE8F08F00300140AE
:100C2000000002400004024000080240000C0240A4
:100C300000100240003C01402DE9F84FDFF860B1A0
:100C400000224FF001084FF0030A4FF00F090BF19B
:100C5000040E00BF0B6808FA02F42340A3426ED1D1
:100C60004D68022D01D0122D0ED1D50800EB850C58
:100C7000DCF820505607F70E09FA07F6B5430E695F
:100C8000BE402E43CCF82060066855000F790AFA62
:100C900005FC07F0030726EA0C06AF403743076060
:100CA0004E68012E05D0022E03D0112E01D0122E37
:100CB0000ED18668CF6826EA0C06AF4037438760BE
:100CC0004668A6430C79C4F300149440344344604E
:100CD000C6688C6826EA0C06AC403443C4604C6895
:100CE000E40056D52F4C256845F4804525602468DE
:100CF00022F0030504F4804400942B4C2E19D6F8FE
:100D0000084895072F0F09FA07F5AC43274DA8426D
:100D100001D1002515E0264DA84201D1012510E0A2
:100D2000244DA84201D102250BE0234DA84201D158
:100D3000032506E0214DA84202D1042501E028E068
:100D40000725BD402543C6F80858DBF800405D463E
:100D50004E689C43F60300D51C432C60DEF800402F
:100D600075464E689C43B60300D51C432C600C4D61
:100D700008352C684E689C43F60200D51C432C6055
:100D8000074D0C352C684E689C43B60200D51C43B9
:100D90002C60521C102AFFF45DAFBDE8F88F0000F4
:100DA000003C014044380240003001400000024055
:100DB0000004024000080240000C02400010024003
:100DC0000069084000D00120704742694A404261F2
:100DD00070470AB1816170470904FBE701488068E8
:100DE00070470000500000200248816802781144DA
:100DF00081607047500000200B4810B5016841F435
:100E000000710160016841F480610160016841F492
:100E100080710160032000F097F8002000F006F8D0
:100E200000F024F8002010BD003C024070B50D4DCC
:100E300004464FF47A712878B1FBF0F00A4909684A
:100E4000B1FBF0F000F039FC48B9102C07D20022B9
:100E50002146501E00F058F800206C6070BD012043
:100E600070BD0000500000205C0000201F4808B545
:100E7000016841F480410160006800F48040009006
:100E80001A48001F016841F080510160006800F0BD
:100E900080500090072000F057F8002211466FF0B4
:100EA0000B0000F031F8002211466FF00A0000F04C
:100EB0002BF8002211466FF0090000F025F80022FF
:100EC0001146501F00F020F800221146101F00F0BC
:100ED0001BF800221146901E00F016F80022BDE813
:100EE00008401146501E00F00FB800004438024080
:100EF00000F01F02012191404009800000F1E02034
:100F0000C0F8001170470000F0B40E4B1B680C468F
:100F1000C3F30223C3F10705042D00D90425191DCD
:100F2000072901D2002300E0DB1E012606FA05F1A5
:100F3000491E214099409E40761E16403143F0BC28
:100F400001F0D4B90CED00E0064900F00702086892
:100F50004FF6FF03184040EA0220034A104308609E
:100F6000704700000CED00E00000FA052DE9F047A5
:100F70000E46050065D0DFF81481D8F80000F7B2FE
:100F800000F00F00B04207D288F80070D8F80000D7
:100F900000F00F00B04254D128683D4C810712D5B3
:100FA000400703D5206840F4E0502060287800070F
:100FB00003D5206840F4604020602068A96820F0D4
:100FC000F000084320602878C0072DD030496868B9
:100FD0000839012812D0022813D0032811D009683B
:100FE000890700292DDA216821F0030101432160DE
:100FF000FFF7F4FE814641F2883A0EE00968890362
:10100000EFE709688901ECE7FFF7E8FEA0EB0901CB
:10101000514502D90320BDE8F0872068696800F0D7
:101020000C00B0EB810FEFD1D8F80010404601F072
:101030000F01B14207D90770006800F00F00B042FD
:1010400001D00120E7E72878400705D52068E96846
:1010500020F4E050084320602878000706D5206877
:10106000296920F4604040EAC100206000F036F8B1
:101070002168084AC1F30311515CC8400649086061
:101080000020FFF7D3FE0020C5E70000003C02402F
:1010900008380240183E00085C000020044805495A
:1010A00000680968044AC1F38221515CC840704756
:1010B0005C00002008380240283E0008044805492A
:1010C00000680968044AC1F34231515CC840704766
:1010D0005C00002008380240283E0008154810B582
:1010E000006810F00C02144813D04110042A0FD0ED
:1010F000082A0ED10F4C241F2268236802F03F02F9
:101100005B0207D52068C0F38810A0FB010106E050
:10111000084610BD2168C1F38811A1FB000100231E
:10112000FFF754F82168C1F30141491C4900B0FBA5
:10113000F1F010BD083802400024F4002DE9F84F0A
:10114000050076D02878DFF8F8B2BE4CC00749D049
:10115000DBF800105846C1F38101012908D000686E
:10116000C0F3810002280AD1201D0068400206D584
:101170002068800336D568680028E2D032E06868CD
:10118000B0F5803F10D0B0F5A02F206810D020F42B
:1011900080302060206820F4802020606868A0B142
:1011A000FFF71CFE06460CE0206840F48030F4E7B0
:1011B00040F480202060F7E7FFF710FE801B6428D2
:1011C00073D820688003F7D50CE0FFF707FE0646CA
:1011D00005E000BFFFF702FE801B6428F0D82068FE
:1011E0008003F7D42878DFF8608280074FF0000989
:1011F0003ED5DBF80010584611F00C0F09D00068FE
:10120000C0F3810002280BD18D48001F0068400206
:1012100006D42068800715D5E868012809D111E0B7
:10122000E868B8B10120C8F80000FFF7D7FD06460E
:1012300005E002E1FFF7D2FD801B0228C0D820683C
:101240008007F7D52068296920F0F80040EAC1003E
:1012500020600DE0C8F80090FFF7C0FD064604E0EE
:10126000FFF7BCFD801B02281FD820688007F7D439
:101270002878000722D5724E744869696C3671B1BE
:1012800001210160FFF7AAFD074604E0FFF7A6FD74
:10129000C01B022809D830688007F7D50EE0C0F8D7
:1012A0000090FFF79BFD074605E083E0FFF796FD02
:1012B000C01B02287ED830688007F7D42878400702
:1012C00068D5DFF87CA100270AF1380ADAF80000B7
:1012D000C0000BD4DAF8001041F08051CAF80010B9
:1012E000DAF80000012700F080500090584E306876
:1012F000C00510D4306840F480703060FFF76EFD98
:10130000009005E0FFF76AFD0099401A022851D8C5
:101310003068C005F6D54A4EA868683601280FD057
:101320000528306810D020F001003060306820F0CF
:1013300004003060A868B8B1FFF750FD00900FE0DE
:10134000306840F00100F4E740F004003060F7E757
:10135000FFF744FD0099411A41F28830814264D878
:1013600030688007F4D50EE0FFF738FD009007E005
:10137000FFF734FD0099411A41F28830814254D878
:1013800030688007F4D42FB1DAF8001021F08051D2
:10139000CAF80010A869C0B3DBF80010C1F38101DE
:1013A00002294AD00228484607D0C8F86000FFF753
:1013B00015FD00E039E005463AE04746C8F8600010
:1013C000FFF70CFD064604E0FFF708FD801B02282E
:1013D0002BD820688001F7D4D5E907010843A96A12
:1013E0001C4A490802EB01416A6A41EA821108433A
:1013F00095F82C1040EA01611148001F016001209E
:101400003866FFF7EBFC054605E014E0FFF7E6FC65
:10141000401B022809D820688001F7D50BE000BFE7
:10142000FFF7DCFC401B022802D90320BDE8F88F3F
:1014300020688001F4D40020F8E70120F6E70000DE
:10144000083802400038024000004742800E474200
:10145000007000400000FFFF90F85100704770B529
:10146000040005D00025A56294F8510010B106E0F3
:10147000012070BD84F85050204600F030F8022062
:1014800084F851002068016821F040010160D4E92E
:1014900001010843D4E90312114308436169084379
:1014A000218B01F400710843E1690843216A084374
:1014B000A16A084321680860A069042101EA10407C
:1014C000616A0843216848602068C16921F40061AD
:1014D000C1616565012084F85100002070BD70472E
:1014E0002DE9F84F044690F8500000260A9F9A46CE
:1014F00093460D464FF0010801280ED0012084F8D4
:101500005000FFF76BFC814694F851006168012898
:101510000CD0B1F5827F07D102E00220BDE8F88F40
:10152000A16809B9042801D00226BDE055B1BBF17C
:10153000000F07D0BAF1000F04D094F85100012831
:1015400002D004E00126AFE0052084F8510000201D
:101550006065C4F838B0A4F83EA0A4F83CA02563A8
:10156000A4F836A0A4F834A0206460642068016860
:10157000490603D4016841F040010160E068B0F51C
:10158000006F606804D0E8B3E08E01283BD06AE0C9
:1015900010B1E08E01282ED1216835F8020BC86009
:1015A000E08E401EE08626E0B8F1000F0DD0E08E00
:1015B00058B120688168890707D535F8021BC160DA
:1015C000E08E401EE0864FF00008E08F58B12068A2
:1015D0008168C90707D0C0682BF8020BE08F401E56
:1015E000E0874FF00108781C05D0FFF7F7FBA0EB70
:1015F0000900B84246D2E08E0028D5D1E08F0028FD
:10160000D2D136E0FFE7216815F8010B0873E08EB0
:10161000401EE08627E000BFB8F1000F0DD0E08E3D
:1016200058B120688168890707D515F8011B017337
:10163000E08E401EE0864FF00008E08F58B1206831
:101640008168C90707D0C0680BF8010BE08F401E06
:10165000E0874FF00108781C05D0FFF7BFFBA0EB37
:101660000900B8420ED2E08E0028D5D1E08F0028C4
:10167000D2D13B46012202212046CDF8009000F055
:1016800056FE08B103260FE04A463946204600F0D0
:101690003EFE18B101262020606505E0A06818B95B
:1016A0002068C16880680090012084F85100002003
:1016B00084F85000304631E7704710B5401EB0F155
:1016C000807F01D3012010BD4FF0E02460610F2125
:1016D000601700F00BFE0020A061072020610020B1
:1016E00010BD10B5FFF7E8FF10BD7047704730B56B
:1016F00090F83820012A20D0012280F838200223D7
:1017000080F8393003685C6824F070045C6003681A
:101710005C680D682C435C6003689C6824F080045E
:101720009C6003689C6849680C439C6080F8392081
:10173000002180F83810084630BD022030BD7047C7
:1017400070B50446006801694FF00005C943890778
:1017500015D4C168C943890711D4E91E016101206C
:101760002076206880698007204602D0FFF7E7FFD7
:1017700004E000F0C1F8204600F05EF9257620680C
:101780000169C943490717D4C168C943490713D43C
:101790006FF004010161022020762068806910F456
:1017A000407F204602D0FFF7CAFF04E000F0A4F813
:1017B000204600F041F9257620680169C9430907F0
:1017C00016D4C168C943090712D46FF0080101613A
:1017D000042020762068C0698007204602D0FFF7E9
:1017E000AEFF04E000F088F8204600F025F92576E9
:1017F00020680169C943C90617D4C168C943C9062D
:1018000013D46FF010010161082020762068C069B0
:1018100010F4407F204602D0FFF791FF04E000F073
:101820006BF8204600F008F9257620680169C94365
:10183000C90708D1C168C943C90704D1891E01611C
:10184000204600F013F920680169C943090609D44C
:10185000C168C943090605D46FF0800101612046C3
:10186000FFF743FF20680169C943490609D4C168ED
:10187000C943490605D46FF040010161204600F0DC
:10188000F6F820680169C94389060BD4C168C943C9
:10189000890607D46FF0200101612046BDE8704041
:1018A000FFF724BF70BD000010B586B004461421B8
:1018B0006846FEF7D5FC2068B0F1804F16D10C4881
:1018C0000021026842F001020260006800F001009D
:1018D00005904FF4004000900220CDE90101012065
:1018E000CDE9031069460348FFF7A6F906B010BD1D
:1018F0003038024000000240704770B5044690F84E
:1019000038000D4601280DD0012684F838600220E9
:1019100084F8390042B1042A18D0082A2AD00C2AA7
:101920004DD139E0022070BD206800F01BFE206818
:10193000816941F0080181612068816921F0040119
:101940008161206881692A69114311E0206800F0F3
:1019500031FE2068816941F40061816120688169FC
:1019600021F480618161206881692A6941EA02214C
:10197000816124E0206800F049FE2068C16941F0DF
:101980000801C1612068C16921F00401C1612068BA
:10199000C1692A69114311E0206800F063FE2068E4
:1019A000C16941F40061C1612068C16921F48061AD
:1019B000C1612068C1692A6941EA0221C16184F8D4
:1019C0003960002084F8380070BD10B5040003D0E1
:1019D00094F8390010B107E0012010BD002084F810
:1019E0003800204600F00CF8022084F83900211D50
:1019F000206800F063FD012084F83900002010BD4C
:101A000008B50068B0F1804F12D10A48016841F072
:101A1000010101600068002200F001000090114601
:101A20001C20FFF771FABDE808401C20FFF760BAE0
:101A300008BD0000403802407047000010B5044661
:101A40000068012200F082FD07492068884203D126
:101A5000416C41F4004141642068016841F001019A
:101A60000160002010BD0000000001407047704779
:101A700070B5040004D094F83900002510B106E0D8
:101A8000012070BD84F83850204600F023F824204F
:101A900084F839002068C16821F40051C1602046F3
:101AA00000F002FE2068016921F490410161206884
:101AB000416921F02A0141612068C16841F4005167
:101AC000C160E563202084F8390084F83A000020E2
:101AD00070BD000010B586B0044614216846FEF7BC
:101AE000BFFB1349206888421FD1124800210268B9
:101AF00042F400320260006800F4003005900D48A6
:101B00001038026842F001020260006800F0010033
:101B100005900C2000900220CDE901010720CDE9BD
:101B2000031069460448FFF787F806B010BD0000AF
:101B30000044004040380240000002402DE9F843D4
:101B4000044690F839001F4616460D46202850D10D
:101B5000A5B19EB194F8380001284AD0012084F83C
:101B600038004FF00008C4F83C80212084F8390088
:101B7000FFF734F9A6848146E68426E00120BDE81B
:101B8000F883E08C401EE084A0684B46B0F5805F8F
:101B90004FF000024FF080012046009703D000F084
:101BA000D9FEE8B90DE000F0D5FEC8B92888216853
:101BB000C0F308004860206908B16D1C05E0AD1C49
:101BC00003E0216815F8010B4860E08C0028D8D1AB
:101BD0004B46002240212046009700F0BBFE08B192
:101BE0000320CCE7202084F8390084F838800020D6
:101BF000C5E70220C3E7000010B5074C01212046CD
:101C0000FEF792FF02212046FEF78EFFA115204627
:101C1000FEF78AFF002010BD0000024070B5154895
:101C200086B00024016841F00101016000680125CF
:101C300000F00100009505900F48CDE901040F4E1A
:101C400069463046FEF7F8FF28020090CDE90154BE
:101C5000694630460394FEF7EFFF02200090CDE97D
:101C60000154694630460394FEF7E6FFFEF722FD75
:101C700006B070BD30380240000011100000024074
:101C80002DE9F04186B00E460746FF2019A18DF8D8
:101C90001400D1E90001CDE90301DFF860800024E0
:101CA000224602214046FFF794F8052201A903A825
:101CB000FEF73EFD9DF80400022812D1BDF8075042
:101CC0007DB1B5420BD9354609E00122694605A828
:101CD000FEF72EFD9DF800003855641CE4B2AC42BE
:101CE000F3D3012202214046FFF773F806B02046E5
:101CF000BDE8F0810B000000000000000000024081
:101D000070B50A4D4FF48074002221462846FFF733
:101D100060F80520FEF7D6FE012221462846FFF78F
:101D200058F80520FEF7CEFE002070BD00000240EE
:101D30002DE9FF4789461FA18246D1E90001CDE97F
:101D40000201FFF74BF81D4E05466FF001084FF0FA
:101D5000FF370024224602213046FFF73AF80522D9
:101D6000694602A8FEF7E4FC9DF8000002280DD0A9
:101D70003C46012202213046FFF72BF8FFF72EF8F0
:101D8000401B0F280FD96FF002040EE09DF80110E0
:101D90004846494505D3024609495046FEF7C8FC66
:101DA000E7E74446E5E7002CD3DB04B02046BDE876
:101DB000F08700000A000000000000000000024060
:101DC00038010020FEE700007FB500241148009490
:101DD000019402940E49039401604FF48031C0E9EC
:101DE0000114046184610C490462C0E90A140125EC
:101DF000C460C56145610463FEF7B9FD0420CDE907
:101E00000005694602940348FEF708FD7FBD000007
:101E100000200140740000200100000FF0B587B0E1
:101E200014216846FEF71CFA29480024016841F095
:101E300004010160016801F004010591016841F0AD
:101E400080010160016801F080010591016841F0A5
:101E500001010160016801F001010591016841F093
:101E60000201016000681B4F00F002004FF4917600
:101E70000590002231463846FEF7ABFF4FF4005084
:101E800000901548CDE9010469461448FEF7D4FED8
:101E9000012513480095CDE9010469463846FEF74F
:101EA000CBFE0096CDE90154694638460394FEF70F
:101EB000C3FE69463846FEF7BFFE002211460620E3
:101EC000FFF722F80620FFF713F807B0F0BD000077
:101ED000303802400000024000002110000802409B
:101EE0000000111010B50D49016000244FF48271FB
:101EF000C0E90114C4604FF400720461C0E90542F6
:101F00001822C0E9072444620A21C0E90A41FFF708
:101F1000A6FA00B10124204610BD000000300140A7
:101F200010B58AB0002407941C2168460894FEF777
:101F300097F911484FF08041016042F2CF01C0E9AA
:101F40000114C821C0E90314FFF73FFD079407A956
:101F500009480894FFF7CBFB6020CDE90004029408
:101F60000022694604480494FFF7C7FC0248FFF7C3
:101F70009BFC0AB010BD0000BC00002010B5094950
:101F8000016000244FF4E131C0E901140C22C46067
:101F9000C0E904428461C461FFF76AFD00B1012415
:101FA000204610BD004400402DE9F0434BA08BB00B
:101FB000D0E900674BA00021D0E900450846FEF7B4
:101FC00023FB0020FEF7B6FA0020FEF789FA002175
:101FD000464801F049FB05A904A801F01FFB01F0E8
:101FE0001DFCBDF814209DF8101041A000F048FD24
:101FF0009DF8101043484FF00109302901D980F8AD
:10200000009080464078002834D0CDE9064506AAE5
:102010000621002001F075FA010002D03AA000F07C
:102020002FFD01F08FF910B13FA000F029FD98F8C5
:1020300001204446012A98F8002009A908A81CD0CC
:10204000012A28D00B4602460AA9032000F0ABFF64
:1020500010B13AA000F014FD00223D491023CDE953
:102060000032CDE9021907231146012001F007F8DB
:10207000D0B11CE0CDE90667C9E7012A04D00B46C0
:1020800002460AA90120E1E7CDE90001072200216B
:102090000AAB012005E0CDE900010AAB07220021CF
:1020A000042000F0B4FFD3E72AA000F0E9FC607838
:1020B000012801D02DA006E034A000F0E1FCFEF7DD
:1020C0009DF948B139A000F0DBFC0421012001F0AA
:1020D000F4F90BB0BDE8F0833CA0F4E7BB0000E1ED
:1020E00080020000AA0000E1800200000D3D00080F
:1020F00048577665722025642C20465776657220F5
:1021000025640A001000002053657474696E67200E
:1021100042445F41444452206661696C65642030EA
:1021200078253032782E0A00474154545F496E6951
:1021300074206661696C65642E0A00004741505F37
:10214000496E6974206661696C65642E0A0000003E
:1021500040E20100424C4520537461636B20496E9C
:10216000697469616C697A65642E0A00434C49455B
:102170004E543A20424C4520537461636B20496EA3
:10218000697469616C697A65640A00005345525646
:1021900045523A20424C4520537461636B20496E8E
:1021A000697469616C697A65640A00004572726FCE
:1021B00072207768696C6520616464696E6720735A
:1021C0006572766963652E0A0000000053657276B9
:1021D0006963652061646465642073756363657316
:1021E0007366756C6C792E0A0000000010B500F063
:1021F000E5FBBDE8104001F037BC000010B52348F6
:102200008CB000240078D8B121A30DF11C0C0FCBA9
:102210008CE80F000021084601F092FA059403941F
:10222000049407A80D2106940094CDE90110002321
:102230004FF480525110184600F05BFF0CB010BDF7
:1022400017A000F01DFC1DA1D1E90001CDE9070197
:102250000020FEF7ABF94FF4FA603C21CDE9041001
:1022600006902820CDE9004002904FF4804003946E
:1022700007AB0022014600F054FE0028DED011A07A
:1022800000F0FEFB6420FEF71DFCD7E711000020E4
:1022900009426C75654E52475F43686174000000E7
:1022A000436C69656E742043726561746520436F89
:1022B0006E6E656374696F6E0A000000AA0000E12B
:1022C000800200004572726F72207768696C652029
:1022D0007374617274696E6720636F6E6E65637488
:1022E000696F6E2E0A000000FEE770470907090EAD
:1022F000002806DA00F00F0000F1E02080F8141D3D
:10230000704700F1E02080F800147047704738B53E
:102310000B46009204460022802100F008F80028B5
:1023200004D0606D40F020006065032038BD2DE9C9
:10233000F0411D4617460E460446DDF8188035E08C
:10234000681C33D02DB1FEF749FDA0EB0800A84270
:102350002CD32068416821F0E00141606068B0F54D
:10236000827F0BD1A068B0F5004F02D0B0F5806F2E
:1023700004D12068016821F040010160A06AB0F535
:10238000005F0AD1206801684DF6FF7211400160BC
:102390002068016841F400510160012084F8510077
:1023A000002084F850000320BDE8F0812068806898
:1023B00036EA000004D00020B842C1D10020F3E783
:1023C0000120F9E7704710B5FEF70EFDBDE810409B
:1023D000FFF787B930B593B030216846FDF740FF6D
:1023E00014210CA8FDF73CFF1A480024016841F0B5
:1023F00080510160006800F080501190164801681B
:1024000021F4404141F4004101600068022500F4DC
:1024100040401190012003901020009506950490F3
:10242000CDE907404FF4A870099004200A900720D6
:102430000B906846FEF782FE0F20CDE90C05E802FE
:10244000CDE90E4002210CA81094FEF78FFD13B0C9
:1024500030BD000040380240007000401048016864
:1024600041F4700101600F48016841F00101016011
:102470000C4A00210832116002680B4B1A400260BE
:10248000031D0A4A1A60026822F48022026005488D
:102490000C3001600249580680390860704700001E
:1024A00088ED00E000380240FFFFF6FE1030002407
:1024B0000148FFF745B90000BC000020F0B50268F4
:1024C0001B4B1C4C9F031C4D1C4E984207D0B8421E
:1024D00005D0A04203D0A84201D0B04204D122F0DE
:1024E000700C4A6842EA0C02984210D0B8420ED0F2
:1024F000A0420CD0A8420AD0B04208D0104CA04252
:1025000005D0104CA04202D00F4CA04203D122F4BF
:102510004074CA68224302608A68C2620A688262A2
:10252000984201D10969016301214161F0BD0000B8
:10253000000001400004004000080040000C004082
:1025400000400140004401400048014010B5012313
:10255000046A8B409C430462036A8A40134303620B
:1025600010BD000030B5026A22F001020262026A68
:102570004368846924F073050C682C4322F002053B
:102580008A682A430A4DA8420BD122F00805CA687E
:1025900023F440732A434D6922F004021D438B69E2
:1025A0002B434360846149684163026230BD00008F
:1025B0000000014030B5026A22F010020262026A95
:1025C000436884690D6824F4E64444EA05248D6870
:1025D00022F0200242EA05120B4DA8420ED1CD682E
:1025E00022F0800242EA05124D6923F4406343EA77
:1025F00085038D6922F0400243EA850343608461CC
:1026000049688163026230BD0000014030B5026A52
:1026100022F480720262036A4268C46923F4007380
:1026200024F073050C682C438D6843EA05230C4D98
:10263000A8420ED1CD6823F4006343EA05234D6917
:1026400022F4405242EA05128D6923F4806342EA83
:1026500005124260C4614968C163036230BD000075
:102660000000014030B5026A22F480520262046A1E
:102670004268C3690D6823F4E64343EA05238D6885
:1026800024F4005444EA0534064DA84204D14D69AF
:1026900022F4804242EA85124260C36149680164C3
:1026A000046230BD000001402DE9F041044600689D
:1026B000016921F44052E168114301612168C86851
:1026C00049F20C6290432369A268E5691A43636981
:1026D0002B431A430243CA602168486920F44072C0
:1026E000A06910434861E1696425B1F5004F97483E
:1026F000974A21684FF032083FD0914201D0814281
:102700007CD1FEF7DBFC00EBC00101EB001061683F
:102710008900B0FBF1F6FEF7D1FC00EBC00101EB44
:10272000001061688900B0FBF1F0B0FBF5F06FF0CC
:102730001801484306EB800108EB0110B0FBF5F0EF
:1027400000F0F006FEF7BAFC00EBC00101EB001050
:1027500061688900B0FBF1F0B0FBF5F006EB001604
:10276000FEF7ACFC00EBC00101EB001061688900D2
:10277000B0FBF1F7FEF7A2FCD2E0914201D081421A
:102780003DD1FEF79BFC00EBC00101EB001061683E
:102790004900B0FBF1F0B0FBF5F00601FEF78EFC4E
:1027A00000EBC00101EB001061684900B0FBF1F7DC
:1027B000FEF784FC00EBC00101EB001061684900EA
:1027C000B0FBF1F0B0FBF5F06FF01801484307EBF8
:1027D000800108EBC100B0FBF5F000F0F80006EB5B
:1027E0004006FEF76BFC00EBC00101EB00106168D6
:1027F0004900B0FBF1F7FEF761FC3CE055E0FEF765
:102800004DFC00EBC00101EB001061684900B0FB1A
:10281000F1F0B0FBF5F00601FEF740FC00EBC00163
:1028200001EB001061684900B0FBF1F7FEF736FCE0
:1028300000EBC00101EB001061684900B0FBF1F052
:10284000B0FBF5F06FF01801484307EB800108EB8F
:10285000C100B0FBF5F000F0F80006EB4006FEF713
:102860001DFC00EBC00101EB001061684900B0FBEA
:10287000F1F7FEF713FC00EBC00101EB00106168FB
:102880004900B0FBF1F0B0FBF5F06FF018014843E0
:1028900007EB800108EBC100B0FBF5F000F007008A
:1028A000216830448860BDE8F081FEF7F7FB00EB5B
:1028B000C00101EB001061688900B0FBF1F6FEF782
:1028C000EDFB00EBC00101EB001061688900B0FB7B
:1028D000F1F0B0FBF5F06FF01801484306EB800112
:1028E00008EB0110B0FBF5F000F0F006FEF7D6FBA8
:1028F00000EBC00101EB001061688900B0FBF1F052
:10290000B0FBF5F006EB0016FEF7C8FB00EBC001CC
:1029100001EB001061688900B0FBF1F7FEF7BEFB28
:1029200000EBC00101EB001061688900B0FBF1F021
:10293000B0FBF5F06FF01801484307EB800108EB9E
:102940000110B0FBF5F000F00F00A9E70014014002
:10295000001001402DE9F041984617460E46044606
:10296000069D1DE0681C1BD02DB1FEF737FAA0EBC9
:102970000800A84214D92068C16821F4D071C16050
:102980002068416921F001014161202084F839006B
:1029900084F83A00002084F838000320BDE8F08174
:1029A0002068006836EA000004D00020B842D9D080
:1029B0000020F3E70120F9E7FEE70000F0B5254C21
:1029C00085B02078244D30B1FFF718FC002020702E
:1029D000FDF70EFEA8706878204C214DE0B9206804
:1029E000204E214F08B1307820B1206838B13878B6
:1029F00018B104E001F066F901E001F03FF9206848
:102A000050B1307840B1387830B1287820B9002002
:102A1000FDF7BCFD00F0C6FD142214A16846FDF7C9
:102A200006FC9DF80000012801D0002810D1206884
:102A300000280DD0287800280AD000F091FD8DF8EC
:102A400000006420FEF73EF81421684601F0F6F815
:102A500005B0F0BD14000020100000202800002068
:102A6000150000201800002019000020003132332A
:102A70003435363738394142434445464748494A58
:102A80000FB4054B10B503A9044A029800F018F8DA
:102A900010BC5DF814FB0000F93500087000002040
:102AA00002E008C8121F08C1002AFAD17047704717
:102AB000002001E001C1121F002AFBD17047000075
:102AC0002DE9FF4F8DB00F460546002606E025286C
:102AD0000BD0DDE90F1290476D1C761C287800287A
:102AE000F5D111B03046BDE8F08F0024A246A146D2
:102AF0000122EC4900E0044315F8013F203B02FAB3
:102B000003F00842F7D128782A2810D06FF02F025E
:102B10002878A0F13001092914D80AEB8A0102EBC8
:102B2000410144F0020400EB010A6D1CF0E701CF03
:102B30005FEA000A03D544F40054CAF1000A44F0E5
:102B400002046D1C28782E2817D115F8010F44F0C7
:102B500004042A280ED06FF02F022878A0F130014B
:102B600009290AD809EB890102EB410100EB0109AF
:102B70006D1CF2E757F8049B6D1C28786C280FD069
:102B800006DC4C2817D068280DD06A2814D104E040
:102B9000742810D07A280FD10DE044F400140AE014
:102BA00044F4801401E044F440146978814202D175
:102BB00004F580146D1C6D1C2A786E2A1FD00CDC65
:102BC000632A31D004DC002A8BD0582A11D1A3E02B
:102BD000642A68D0692A0CD165E0732A2ED004DCFF
:102BE0006F2A73D0702A04D19BE0752A6FD0782A9F
:102BF0006ED01046DDE90F129047761C50E1C4F309
:102C00000250022806D0032809D0042801CF09D099
:102C1000066045E101CFF117C0E9006140E101CF55
:102C200006803DE106703BE117F8040B8DF80000CB
:102C300000208DF80100EB46012003E057F804BBAB
:102C40004FF0FF3061074FF0000102D40DE008F1B2
:102C50000101884649450FDA8045F8DB1BF808106A
:102C60000029F4D108E008F1010188468142FADB2D
:102C70001BF808100029F6D1DDE90F23AAEB0800A4
:102C80008146214600F036F9304400EB080604E0A6
:102C9000DDE90F121BF8010B9047B8F10108F7D2DC
:102CA00021464846F7E00A21C4F302534FF0000BD7
:102CB0000891022B04D001CFC117032B09D00AE0E1
:102CC000FF1D27F00707F7E8020108E032E01FE0E8
:102CD00020E000B2C117042B01D140B2C117031E7E
:102CE00071F1000307DA4FF0000CD0EB0C006CEB35
:102CF00001012D2302E0230504D52B238DF8243078
:102D0000012303E0E30701D02023F7E7984658E0CA
:102D10000A2110E010210EE010204FF0000B089067
:102D20000CE010214FF0000B44F004044FF00809B0
:102D3000089103E008214FF0000B0891C4F30253FF
:102D4000022B04D001CF0021032B06D006E0FF1D8B
:102D500027F00707F7E8020103E080B2042B00D157
:102D6000C0B24FF0000823072BD5702A07D0DDF83A
:102D700020C08CF0100C5CEA0B0C05D00EE0402358
:102D80008DF82430012308E050EA010306D03023F7
:102D90008DF824308DF8252002239846DDF820C0D8
:102DA0008CF0080C5CEA0B0C0BD150EA010301D14A
:102DB000630706D530238DF824304FF00108A9F1C0
:102DC0000109582A04D038A20B9208AA0A920BE0F3
:102DD0003AA2F9E75B46089AFDF7F8F90B9B9B5C72
:102DE0000A9A521E0A92137050EA0102F2D10A980E
:102DF000ADEB000000F1200B600702D524F4803415
:102E000001E04FF00109D94502DDA9EB0B0000E01C
:102E1000002000EB0B0141440890AAEB010AE003FB
:102E200006D4DDE90F232146504600F063F806443E
:102E30004FF0000908E009A911F80900DDE90F12B7
:102E4000904709F10109761CC145F4DBE0030CD57C
:102E5000DDE90F232146504600F04CF8064404E01B
:102E6000DDE90F1230209047761C0899481E089023
:102E70000029F5DC08E00A980A990078491C0A91B3
:102E8000DDE90F129047761CBBF10001ABF1010B9D
:102E9000F1DC21465046DDE90F2300F019F8064425
:102EA0006D1C1BE6092801003031323334353637CA
:102EB0003839616263646566000000003031323386
:102EC0003435363738394142434445460000000026
:102ED0002DE9F041044600251E461746880404D417
:102EE00005E039462020B0476D1C641EF9D5284600
:102EF000BDE8F0812DE9F041044600251E469046CC
:102F0000C80301D5302700E02027880404D505E058
:102F100041463846B0476D1C641EF9D52846BDE8C9
:102F2000F0812DE9F0438DB00DF1500E9EE8F013C5
:102F3000ADF80000ADF802108DF804201868CDF847
:102F400005009888ADF80900ADF80C50ADF8107088
:102F5000ADF814908DF80B40ADF80E60ADF812800E
:102F6000ADF816C0182106A8FDF77AF93F20ADF894
:102F700018009C20ADF81A00182009900F20079027
:102F80000CA80A9001200B90CDF820D0002106A8B3
:102F900000F060FC002803DAFF200DB0BDE8F083EC
:102FA0009DF83000F9E770B58AB00E468DF8200024
:102FB0000020009001901C461546182102A8FDF73C
:102FC0004FF93F20ADF808008A20ADF80A0008A8A4
:102FD00004900120059007200790CDF818D000211B
:102FE00002A800F037FC002802DAFF200AB070BD0A
:102FF0009DF800000028F9D1BDF801003080BDF82F
:1030000003002880BDF8050020800020EEE770B5A1
:103010008AB01C468DF82000DDE90E6500208DF891
:103020002110009001908DF82220182102A8FDF7B0
:1030300017F93F20ADF808008A20ADF80A0008A86B
:1030400004900320059007200790CDF818D00021A8
:1030500002A800F0FFFB002802DAFF200AB070BDD2
:103060009DF800000028F9D1BDF801002080BDF8CE
:1030700003003080BDF8050028800020EEE72DE930
:10308000F0438FB01D46134616AA6C4692E8C00363
:103090008DF800008DF8011010221946A01CFDF7D4
:1030A000C6F88DF812508DF813608DF81470CDF8B5
:1030B00015808DF81990182107A8FDF7D1F83F2049
:1030C000ADF81C008620ADF81E001A20CDE909409D
:1030D0000DA80B9001200C90002107A800F0BAFB6E
:1030E000002803DAFF200FB0BDE8F0839DF834001C
:1030F000F9E72DE9FF4192B01EACDDE91C2594E80B
:103100004201AC190E34282C03D9422016B0BDE878
:10311000F0818DF81C00BDF84C00ADF81D00BDF825
:103120005000ADF81F008DF821308DF8222007AC3B
:1031300001278DF8235009A82A46FDF778F80835AD
:10314000E8B232462654401CC5B260194146FDF72C
:103150006EF8A819C0B22118BDF884200A80801C1E
:10316000C0B22118BDF88820801C0A80C5B2182181
:1031700001A8FDF775F83F20ADF804008320ADF8F5
:10318000060011A8CDE9045000210697039401A878
:1031900000F060FB002801DAFF20B7E79DF844004B
:1031A000B4E72DE9FF4F8FB01F46DDE92089BDF858
:1031B0003C00DDF870B0DDF878A0ADF81C00032607
:1031C000134607AD8DF81E10012937D01024224672
:1031D0001946E81CFDF72BF8E41C2F55641C05F874
:1031E00004B0641C1D982855641CE0B205F800A0CA
:1031F000401CC0B21F992954401CC0B2182105F8C8
:103200000080401CC4B20020009001A8FDF728F8FF
:103210003F20ADF804004FF48270ADF80600684618
:10322000CDE9044000210696039501A800F012FBA9
:10323000002805DAFF2013B0BDE8F08F0224C6E7AE
:103240009DF800000028F6D1BDF80110A9F8001083
:10325000F1E72DE9F0418CB01E46DDF848801746B5
:1032600007AD8DF81C00012826D010242246681CCA
:10327000FCF7DDFF641C00202F55641C18212E551F
:10328000009001A8641CFCF7EBFF3F20ADF80400A0
:103290004FF48170ADF806006846CDE90440032084
:1032A00006900395002101A800F0D4FA002805DA61
:1032B000FF200CB0BDE8F0810224D7E79DF80000A4
:1032C0000028F6D1BDF80110A8F80010F1E73FB5CD
:1032D0008FB06C46BDF83C00ADF80000BDF8400072
:1032E000ADF80200BDF844001699ADF804008DF861
:1032F0000630012B21D010252A46E01DFCF797FF50
:10330000182106A8ED1DFCF7ABFF3F20ADF8180013
:103310004FF48B70ADF81A0007AA0F2082E8310035
:103320000CA80A9001200B90002106A800F092FA48
:10333000002804DAFF2013B030BD0225DCE79DF839
:103340003000F8E700B587B018216846FCF788FF21
:103350003F20ADF8000040F20110ADF8020006A8D1
:103360000490012005900021684600F073FA0028BF
:1033700002DAFF2007B000BD9DF81800FAE73FB55C
:10338000A7B09D1D2E99802D02D942202BB030BDB3
:10339000BDF89C00ADF80000BDF8A0008DF8042039
:1033A0006C46ADF802008DF805301A46A01DFCF7FA
:1033B0003EFFEDB2182120A8FCF752FF3F20ADF8E8
:1033C00080004FF48370ADF8820026A82294CDE9E6
:1033D000235001202590002120A800F03BFA00286E
:1033E00001DAFF20D2E79DF89800CFE73FB5541DE2
:1033F000A7B01946802C02D942202BB030BDBDF8B1
:103400009C00ADF80000BDF8A0006D46ADF80200CC
:103410008DF80420681DFCF70AFFE4B2182120A8EB
:10342000FCF71EFF3F20ADF8800040F22110ADF800
:1034300082000F20CDE9210526A8CDE923400120F7
:103440002590002120A800F005FA002801DAFF20CD
:10345000D3E79DF89800D0E730B58FB01446142A12
:1034600002D942200FB030BDADF80000ADF8021017
:103470006D468DF8044022461946681DFCF7D7FEBC
:10348000182107A8FCF7ECFE3F20ADF81C0040F225
:103490002310ADF81E000DA8641DCDE90A400120DF
:1034A0000C900995002107A800F0D4F9002801DA52
:1034B000FF20D7E79DF83400D4E700B589B08DF838
:1034C0001C008DF81D1018216846FCF7C9FE3F202E
:1034D000ADF800000F20ADF8020007A8029002200E
:1034E000039006A80490012005900021684600F092
:1034F000B1F9002802DAFF2009B000BD9DF81800DC
:10350000FAE770B58D1CA8B01346802D02D9422071
:1035100028B070BD8DF800006C468DF801100A4689
:1035200001261946A01CFCF782FEEDB2182120A846
:10353000FCF796FE3F20ADF880000C20ADF882002D
:1035400026A825962294CDE92350002120A800F03A
:1035500081F9002801DAFF20DAE79DF89800D7E723
:1035600010B50E48FDF750FA0C48FDF7FDF90C496F
:1035700040F6FF72486000EB4010B0FBF2F080B202
:1035800008800A284FF0000003D9FDF70FF801204A
:1035900010BDFCF7FBFF002010BD000074000020F0
:1035A00000000020F8B50EA000680090FDF716FCA2
:1035B00004460C4D42F2107605E000BFFDF70EFC0C
:1035C000001BB04209D868896B46801C81B2022278
:1035D0002889FFF70BFF4628F0D001206870F8BD5E
:1035E00001000000140000200249C8200968486357
:1035F00070470000BC00002013B5074905484FF490
:103600007A730978012200EB81106946FEF796FA79
:1036100000981CBD900200202C00002030B587B01F
:10362000054601A80C46009005AB04AA02A903A810
:1036300000F048F810F0FF0014D1BDF80810090A96
:103640002970BDF8081009022180BDF80420C2F3DA
:10365000031241EA02112180BDF8042002F00F029A
:103660001143218007B030BD70B5134D00B1E86142
:1036700000F0B4F9114800F023FA1048083000F0C7
:103680001FFA0F4E002400BFC4EBC40000EB800003
:1036900006EB8001094800F022FA641CE4B2052C14
:1036A000F2D3296809B100208847A868002802D011
:1036B000BDE87040004770BD8C0500206000002010
:1036C000D00200202DE9F04389B000240F46804647
:1036D000DDF840901D46164600940194182103A879
:1036E0000294FCF7BDFD0420ADF80C000120ADF8FC
:1036F0000E006846CDE90640092008900594002197
:1037000003A800F0A7F8002803DAFF2009B0BDE8FD
:10371000F0839DF800000028F8D19DF8011088F88A
:103720000010BDF8020038809DF804003070BDF82C
:1037300005002880BDF80710A9F800100020E5E773
:1037400030B58FB00D46044620216846FCF788FD51
:103750008DF800401F2C00D91F2422466C462946B4
:10376000601CFCF764FD182108A8FCF779FD08200F
:10377000ADF820000920ADF822002020CDE90A4054
:103780000EA80C9001200D90002108A800F062F80E
:10379000002802DAFF200FB030BD9DF83800FAE7AC
:1037A00008B500200090144800F0A5F900281ED1AB
:1037B0006946114800F0ABF91048C268002A16D0DB
:1037C0000098802108309047009910F0FF000FD03A
:1037D00081F888000B7A01F10802042B08D1927855
:1037E000C01E824204D10448083000F078F908BDB8
:1037F000014800F068F908BD600000208C05002039
:10380000054902680A60C268CA6002690A61826981
:103810008A618068886070478C05002000B587B099
:1038200018216846FCF71CFD0320ADF80000ADF838
:10383000020006A80490012005900021684600F0CF
:1038400009F8002802DAFF2007B000BD9DF8180033
:10385000FAE700002DE9F0410F4604460188408850
:10386000A8B061F39F2085B24FF0000826A8CDF8DC
:10387000908000F025F908E06946564800F047F9C5
:1038800054480099083800F02AF95248083800F0E6
:1038900009F90228F0DB22886088267B62F39F20EA
:1038A000A168ADF8840001208DF886608DF80000D5
:1038B000BDF88400ADF801008DF80360324601A820
:1038C000FCF7B5FC4448026912B1311D68469047C7
:1038D0001FB1002028B0BDE8F0814FF47A7600BF18
:1038E000FDF77CFA4FEA0007FDF778FAC01BB042FB
:1038F00062D8384800F0FFF80028F5D124A93548EF
:1039000000F005F9249800F10803017A04293ED15A
:1039100090F888205878D91CD21E0E2814D00F2871
:1039200004D0102848D03E2831D118E04888A84259
:1039300042D160680F2802D00878A8BB27E06069F0
:1039400009E06261206916E0B1F80100A84233D1B4
:10395000C91C6069D21E9042F3D80246F1E708788C
:103960006368984213D16069521E904200D80246A3
:103970006261491C2069FCF75AFC164824990838F2
:1039800000F0A1F826A9134800F01AF9A1E71148A0
:10399000083800F0B0F840B10E4800F0ACF820B1A3
:1039A0000C482499083802E006E026A8249900F083
:1039B00096F8CDF8908093E7249919B10548083816
:1039C00000F081F826A9034800F0FAF84FF0FF3024
:1039D00080E70000680000208C05002000B587B05B
:1039E000114800901148019011480490114803902B
:1039F00011480290114806906846FFF701FF4FF00A
:103A0000C0610F48FDF770F80E4A00210C48FDF721
:103A100083F8002211460620FDF776FA0620FDF70E
:103A200067FA07B000BD00001D1C0008F91B000864
:103A3000311D0008811C0008011D00083105000827
:103A400008000020493A000810B5064C0121204624
:103A5000FDF7B6F9012803D10020FFF7A1FEF5E735
:103A600010BD00000000024038B500200B4C009053
:103A70000DE069460A4800F04AF8E16911B1009882
:103A80000830884706480099083800F028F80448AC
:103A900000F031F80028ECD038BD00008C05002083
:103AA0006800002003460020EFF3108172B61A6808
:103AB00001E01268401C9A42FBD181F310887047E4
:103AC000006040607047EFF3108272B60368C1E98E
:103AD00000300160086882F3108841607047EFF39E
:103AE000108272B6086043684B604160486882F398
:103AF000108801607047EFF3108172B6026882424D
:103B000001D1012000E0002081F31088704730B51A
:103B10000D46EFF3108472B601682960006800F06A
:103B200008F8296800200860296884F31088486034
:103B300030BDEFF3108172B6D0E900231A6005C8DA
:103B400081F310884260704730B50D46EFF3108462
:103B500072B6416829604068FFF7EBFF29680020D2
:103B60000860296884F31088486030BDFDF744F987
:103B7000FEF730FCFEF752F9FEF716FA0F480E4931
:103B80000C2201604FF4E131416000218160C1608D
:103B9000C0E904128161C161FDF76AFFFEF7C0F957
:103BA000FEF712F9054800213C38FDF747FF00BF3A
:103BB000FEF71CFBFCE7000000440040F80000207A
:103BC00038B50C46054607E069462046FFF7BCFFBE
:103BD00028460099FFF777FF2046FFF78CFF002863
:103BE000F2D038BD0249BE20096848637047000022
:103BF000BC00002070B505460E460020FCF7E6FC30
:103C00000C49287888712878012801D018B107E07C
:103C1000FFF7E8FF01E0FFF7E7FC0020FCF7D6FC28
:103C2000002404E0295D04A0FEF72AFF641CB442CE
:103C3000F8DB70BD140000202563000038B50D4C82
:103C40000278E2710C4A1278012A0BD0A28903464D
:103C5000521C95B20A462089294601B0BDE8304081
:103C6000FFF7FABB00900B460022218AE089FFF79C
:103C700086FB38BD140000201100002010B50C4C4C
:103C800086B0E078002810D10AA30DF1040C0FCB08
:103C90008CE80F0001A8009002234FF6FF7201216B
:103CA0002089FFF714FB0120E07006B010BD000072
:103CB00014000020669A0C200008969EE2119EB126
:103CC000E2F273D910B50C4C86B0A078002810D160
:103CD0000AA30DF1040C0FCB8CE80F0001A8009093
:103CE00002234FF6FF7201212089FFF7F0FA01202D
:103CF000A07006B010BD000014000020669A0C20D1
:103D00000008969EE2119EB1E1F273D9421C007840
:103D100004285AD11078052826D03E2826D0FF281E
:103D200053D132F8023FA3F54063013B26D00E2B5E
:103D300030D027480F2B0178264838D0112B44D19A
:103D4000002942D18178921C09B1017951B3C1781F
:103D500000293AD04179002937D1B2F80310818186
:103D60001DA000BFFEF78CBEFCF732BD9178901C01
:103D700001292AD14188801DFCF7FCBC1C4891799F
:103D800000780128908803D012F10702FCF792BB5B
:103D90000932FBE71079801EC1B2B2F80500D21DCE
:103DA000FCF730BDB2F80310418112A0DAE7002918
:103DB0000BD1827801210AB102793AB1C278002A86
:103DC00003D04279002A00D14171704701717047D8
:103DD0001100002014000020525820436861722016
:103DE00048616E646C6520253034580A000000007C
:103DF00010000020545820436861722048616E64AE
:103E00006C6520253034580A00000000280020008E
:103E1000002000000D00000600000000000000006F
:103E20000102030406070809000000000102030460
:103E3000503E00080000002074000000A02A000886
:103E4000C43E0008740000203C090000B02A0008AD
:103E50000000000000000000000000000000000062
:103E600000010000010000000000424200000000CC
:103E70000000000000000000000000000000000042
:103E800000000240000802400044004059070008BA
:103E90000F00000000000000000000000000000013
:103EA0000100000010000000000000000024F400E9
:103EB0000000000000000000000000000000000002
:043EC00000000000FE
:040000050800019559
:00000001FF
